:020000040009F1
:280000000108006999994204204EB1FD0400FFFFFFFF4006000000A0027020020A00280009000000000000001D
:FB002800411A0042726F6164636F6D20426C7565746F6F74682044657669636500980100035C0100017206000300000800017A020000089304002000000068040012000C006A3600030012000000B0000000A0000000400000005310040280000000900000006000000070000000C1000000D00000002000000030000000690200DD005D0C000A64E6B000008898425A33435F09003C280100040004F70C0A6E0088010800C600F3025D0066033000C900E10268005C033600C300E2026A0053033C00C200E1026C004E034100C500D60272004A034300C300CE02790042034800C500C00283003A034E00C800BF0282003B034E00C900BC0284003703520000
:FB01230008080707070707070606060605050505C0D80094FC0E00FFFF00005E02000030FC0E00FFFF0F006304000000FD0E00FFFF0F006602000088FC0E00FFFF0000000200002CFC0E00FFFF00004904000070FC0E00FFFF00000B09000074FC0E00FFFF00002E010000D8FF0E00FFFF000062190000D0FC0E00FFFF000020C90000C8FC0E00FFFF000038850000DCFC0E00FFFF00001CC80000CCFD0E00FFFF0000048000005CFC0E00FFFF00000200000020FC0E00FFFF000019210000E0FC0E000080000000000000C0FC0E00FFFF000022000000C82D08000000FF0000003200189608000000FF0000000600C31600126914173108700478360424306B
:FB021E00607180764A3108290BCF0900100F266EF0B009F0601A2400FF0108080411000FFC0DF80BF409F007EC05E8030411000FFC0DF80BF409F007EC05E8030301000182D600FF0602020A233C5A6E7D80008000800080008000800080028002800280028002800214FF17880AFF200000000000000000000000000014FF17820AFF430000000000000000000000000014FF17000AFF660000000000000000000000000014FF17080AFF660000000000000000000000000014FF170B0AFF430000000000000000000000000014FF17100AFF200000000000000000000000000041000000007B0000000041000000007B0000000041000000007B0000000050
:FB03190041000000007B0000000041000000007B0000000041000000007B000000008612000413004008000040130001000180FF000113C15E0044041422A244041422A23B04B104B204B304B404B504B604B704B804B904BA04BB04BC04BD04BE04BF04C004C104C204C304C404C504C604C704C804C904CA04CB04CC04CD04CE04CF04D004D104D204D304D404D504D604D704D8280C000B0400B65409000823000054A901007AF006FF140064570900D37A002B04D0937A002B01D085F7F3F885F7FCF8082F0001ACB100008AF0E4FA2000785709005810011C2A1CAB3213780020994200D2581A05B4201C75F719FE05BC75F71BFD082F0002C8B300002E
:FB0414008AF0E6F9200098570900037D042B09D0052B07D0082B05D0092B03D00A2B01D075F70EFE75F72AFE0000081B0003FC27030063F0AAF80C00545909000FB400F003F80FBC9CF75EFF08170004D08E01007CF044FE08005C5B090000F006F8FFBD00000B0400645B0900080F0005FC81020000B5000000000000000008170006008202006EF024F808004C62090000F002F800BD00000B0400AC620900080F0007143C020002238648000000000000081D00082C6C00008FF048FD0E00C06609006EF731F8301C207D092870F7B1FA083100099012010085F01DFA2200CE66090003B400F01EF8002805D003BC041C0C2C05D27AF7D8FD03BC00207AEE
:FB050F00F7E9FD7AF7E6FD0813000A9850010081F02AFB0400F06609007EF7DEFC082B000BB08701007DF0A0FF1C00F466090007B400F093F8002802D007BC82F763F807BC75F74EF9221C82F758F80817000C78DE000088F0F8FC08006C68090000F002F810BD00000823000D085B010080F0E0FE1400CC680900386873F7B6FB2968386800F003F87FF718F900000817000E501F030064F0F0FC08003469090000F002F89BF72CFB080F000FBCD20000430700B500000000000008170010C0D2000089F03AFC0800386B0900FFF7EEFF00BD00000B04000456090008230011CC8A01007EF078F81400C06B090002487060024B81F783FFC046856B090023AE
:FB060A008A0100081F0012348B01007EF01EF81000746B09000FB4FFF7E3FF0FBC051C81F7FFFF0000082F0013788602006EF0ACFA2000D46B090000B56DF752FA044803681B0702D51E230248037000BDC046E407080003020800080F0014F01D030000F00CF8000000000000080F00153CBF00004B49642000000000000008230016607502006FF05CFB14001C6C0900002801D090F7A0FC281C211CFFF7E4FF90F7B4FC081700174851010081F09EFD0800886C0900FFF7D2FF10BD000008150018285D000091F0EAFA060000730900FFF7C6FCF2BD081500197862000091F045F8060006730900FFF711FFF1BD0815001A9823020074F0F4FF060084730F
:FB0705000900FFF7E8FF00BD0823001BC823020074F0DFFF14008A73090002B4FFF7E4FF02BC002801D08BF72AF88BF71CF8080F001C2C810000042B04D80000000000000819001D1C9004004EF0BFF90A009E73090001D0B1F76BFEB1F73FFE0827001E30B204004CF0BAF81800A873090002D1B3F7B8FD03E0012903D100F004F8B3F74EFFB3F73CFF0821001F2CA504004CF064FF1200F8730900012098550EB400F023F80EBC207BB3F794F808250020B0A104004DF02BF916000A7409005023E05C002804D1206B002801D0B2F7CDFEB2F7D1FE08290021286A040050F0FAFC1A0020740900116806B400F015F806BC002801D0CB7B00E0E378E078AF99
:FB080000F7FAFA081D00221469040050F091FD0E003A74090001B400F010F8011C01BCAFF768FA08170023F09304004EF046F80800807409005C408868B1F7B6FF0813002478B104004CF086F9040088740900B3F779FE080F0025248D0000052924D8000000000000080F0026708D000006E00C2900000000000008150027349300008EF028F906008875090000F004F8F0BD08150028A89300008EF0F1F806008E75090000F048F8FEBD0815002910AD04004DF01EFC060050850900FFF76AFDF3BD0815002A84AC04004DF067FC060056850900FFF734FEFEBD080F002B047B040014E0001C0000000000000815002C5CB604004CF0B2FF0600C485090055
:FB08FB00FFF754FC30BD0815002DE066000091F073FF0600CA85090000F001F833BD0815002E5C1D030066F0A2FC0600A4860900FFF7D2FF30BD0821002F38A004004EF037FB1200AA8609000323E374272001230355201C6EF7ABF810BD08170030B49802006EF002FF0800BC86090000F002F8F0BD0000081500314C7A040050F07AFE06004487090000F004F870BD081500324080040050F083FB06004A87090000F06CF800BD081700333477000091F094F808006088090000F002F8F0BD0000081700344482040050F036FC0800B48A090000F002F8FFBD000008170035B0CD04004CF02AF80800088E090000F011FB00BD00000813003694CE04004C0E
:FB09F600F0C4FB04002096090030BD00000815003774BC04004DF00EFD060094960900FFF7C6FF70BD08150038D8BD04004DF05FFC06009A960900FFF7D2FF30BD081B0039586D040052F0A2FC0C00A09609000FB400F017F80FBCADF758FB081B003A4465040053F0B2F80C00AC96090000F01DF8201C0521ACF748FF0817003BD065040053F072F80800B89609002371FFF780FF30BD0819003CA470040052F00CFB0A00C096090000F024F830BC08BC18470819003DE870040052F0EFFA0A00CA96090000F042F8ADF738FD0000081B003EC887040051F074F90C00B49A0900041CFFF7CFFF281CAEF786FE0817003F4C48010085F03CFD0800C8A2090066
:FB0AF100FFF733FE7AF7B5FB081700408CCE00008DF020FA0800D0A20900FFF787FF72F734FE08190041AC49000095F0C4FC0A0038A30900301CFFF7CDFF6AF738FB08190042E849000095F0ABFC0A0042A30900281CFFF7E6FF6AF750FB08170043E0AD04004EF05EFF0800A09C0900FEF774FAB1F7ABF8081500444CD103005DF06CF9060028A40900FFF799FF30BD081F0045A4D103005DF043F910002EA409000FB4FFF7BFFF0FBC6BF799FBA2F7B5FE08170046ACD103005DF047F908003EA40900FFF7BCFF08BC1847081B004728B103005FF08DF90C0046A4090030B4FFF7C4FF30BCA0F770FE0829004800BA03005EF027FD1A0052A40900FFF7CDD6
:1A0BEC00FF012801D0A1F718FB024C2078A1F7CFFAC046586A0800FE000036
:FB53000030B5734B73490B60734B74490B607448036804210B430360052372490B6072490B68F02083430B606E49086803016E490868184308606AF7A5FF6C4B984201D3840804E0041C5B10984200D3440868486043684941186848C0F79CF94000811E0906090E402902D3DF310906090E18209DF744FB600861494118201CC0F78AF9041FB2209DF748FB382188436107890E014332209DF732FB90209DF73DFBE0218843382121408900014310209DF726FB534A1368534A1360534A1368534A1360534A1368534A1360534A1368534A1360534A1368534A1360534A1368534A13605348C16D534A1160534A1368534A1360534B544A13604923534A1363
:FB53FB0060534B544A1360544B544A1360544A1368544A13800023544A1370544A1370544A1368544A13600368534A13604068534A10602C4A13685B031AD4514B51480360514B52480360524B52480360524B53480360534B53480360534B54480360544B54480360544B55480360554B55480360554CFF230933E518544B2B6502F02AF904F008FC04F0F0F901F01FFB01F052FF4F4B2B604F4B50490B602C344F4BE3664F4BE3654F4B50490B80504B236000234F490B6030BC08BC18474E484E49086000234E490B70FF234D490B7002234D490B6070475556090054CE080001570900E4C90800100B0800400B080000000F00E0AB0000577C000050A03A
:FB54F6006E00A040DD00C0450400D8FC0E00902D0800E0FC0E00942D0800CCFC0E00982D0800C8FC0E009C2D0800DCFC0E00A02D0800D0FC0E00A42D08002CFC0E00842D0800CCFD0E00882D0800D09E3D00A8A50900ACA50900FFF2011AB0A50900848FB002B4A509003CFF0E004CD20800F0A70900F1A70900D4FF0E00B8A50900BCA50900C0A5090050850000A802080007470000AC02080038850000B40208001E450000C4A509003E450000B00208000AC80000B80208000EC90000BC02080044050000C8A509006C040000CCA50900201A08003575090043670900020A010004020800C19A0900C7840900D5020000DA020800A99C0900A4A509000172
:FB55F1005309009000080072080800F2A70900D0A5090070B500200F49104B4B6114E06B099C00EB06DB0E01259D400B592B430B5143004C69C50052195268012632432725AD03AA1A1A530130054AC3009D58922DE5D370BDC046D41B0800ECA70900CCA4090010B501244A7812020B781A431B4B9A4202D100F0A7F82DE0194B9A4202D101F00BFF27E0174B9A4202D104F0C0FB21E0023B9A4202D104F037FC1BE0124B9A4217D0124B9A4202D104F038FC12E0013B9A4202D104F0E8FB0CE00D4B9A4202D104F033FC06E00B4B9A4202D104F016F900E00024201C10BC08BC184714FC0000030C0000C6FC000005040000C8FC0000D2FC0000E6FC00000F
:7856EC000B7B5B083C2B01D101488860002070473968090030B5041C002921D001291BD1400511D41CE0104D291C1048B7F78CFC2988281CFE2902D104F0D7F804E089000B4A8958C6F7BDFA0848B7F7A8FC0028E9D0084B1C4003E0022901D17AF7A4FD201C30BC08BC18474C4408008044080038C10500FFFBFFFF55
:FB57B80030B50C1C5D4AD06A032109068843D06207235B4A13600025E378002B7FD1012558480378002B0DD1012000F0F1F8564A5169C807C00F554A1070A943524A5161504A15706079012807D308D0032809D30CD005280BD30DD10BE019250AE04C48054307E04A48054302210D4302E0212500E0A125A1798807000D05430120002900D1022000F03FF9E378002B47D13E4A5069012290433C4A5061202147209DF7D1F8BA2146209DF7CDF8472000219DF7C9F8C8209CF76FFB082147209DF7C2F864209CF768FB282147209DF7BBF8C8209CF761FBBA2147209DF7B4F864209CF75AFB217941209DF7ADF8E379072B03D85B429806001603E0082B048A
:A158B300D10823E0567FF7F5F804E0092B03D1607A7EF7E9FE031C1906090E43209DF794F823E0412000219DF78FF8432000219DF78BF8462000219DF787F8472000219DF783F8114A1378002B0FD0002000F062F80F4A11780D4A506901229043114008430A4A50610023084A1370E378002B03D009480540222005430848056030BDC046D820080058D20800F0A709009C1B0800F1A7090000010000FEFF0000C0FC0E0063
:FB596000F0B564486449654A654B664D664E674FEEC01838664908600F236648437088209DF74AF80007000F634B644C236000F04CF890F7EDFC012000F016F8604C2278D207920F5F4C6169FE20814311436161A4F74CF85C4C23689B0301D4ABF7DCFD002000F001F8F0BD10B5041C04F04EFD5649012C15D10023554A13600123554A13608023544A1360544B1D22D2031360534C22681306FBD50B680122520413430FE022234B4C23600B680122D20513430B60002200E00132322AFCD30B68494A13400B6004F02AFD10BDF0B581B0464D2B1C5A33C45C10214448BFF721FD00260A2060434219F3004048C01833490B68191C3F239B02194013881959
:FB5A5B0043018093889B0251881943418091888B051F0F11898B05990F00913B03D18889001943009B1943818013891F063F0C31490B681906090E3943C18001363606360E2D480368E41A2406240E022ECAD302201E4A13685B0300D5012000F002F801B0F0BD10B525490B78834214D00870012801D0032801D1002000E001201049C3001B48C25AC0180A6042884A6082888A60C388184C236010BDD4A5090049960300B7960300DD96030059970300D5610900EF9803000C0C08009C0B0800C518000054FD0E00AC0B08009C1B0800100B080060000F0000820E00C0FC0E0004820E000100800008800E00FFFF7DFF88010800DCA7090060FD0E00D0A535
:065B56000900F2A709009E
:FB5B6400C048C14908607047C04908780130087000060CD1BE4AC42300209850111C5031FF230B5401300928F8D37F234B727047F0B58FB0B7490B7801330B70002845D1B54FA92080003B18B448385CC0560024002801D0B249C8763A57002A03D1B1480023C2563A55AA4D0095AF4E02960120305683185B2169565035994206DA072033569A4202DD0299087803E00098015D481E01D3009908550320305683180B202856984209DA072033569A4205DD009B7433E018B378037005E000997431085D013800D3085501344F2CC5D3904D009550350A22291C0CA8BFF7F4F800240098035D002B03D1211C0CA800F0FEF901344F2CF4D300240099C03101E8
:FB5C5F00910123A34008934868034027D0884FA300DB591805820E0792A300D9598906890E09A800F028FA002609AB0CA98A5D985D10409CF731F90799091A079101360A2EF2D3A300D8590004000F4300994205D20899CB4301994868184048600134162CCBD3744907910CA800F0E1F9A872000600D049E16D498868800711D5281C18308DF7DCFD4F21281C183000F0B9F9291C18310CA800F0CBF9A872000600D033E1002408940A22FF21281C0C3004F0BEFB4F21281C0C3000F0A3F906940098011C733004900470723105910C700021039159480268A05CA6185849096804B4625C671803921318079A9A4204BC00D20693002C05D1537812789A18B3
:FB5D5A004B78097813E04E2C07D14C32937852789A184C318B78497809E0731E1978411873785A187B1E1978029841187B785918404E02968B18707983420DD93079131C4343FF22121A51438B4205D2012103910598037801330370211C281C183000F038F9002809D0009B7433E35C002B04D0049803780133037002E00398002804D0211C281C0C3000F03EF901344F2CA0D3B07906990023814200D901230199CB7000240120A040019A5168084011D02148A300185801058A0E8106890E09A800F05DF909A90CA800F047F9A872000600D09DE00134162CE4D3002403940123A34001984168194048D1134FA300D85901058A0E8106890E09A800F04014
:FB5E5500F9A300D8590005800E0590002609AB71191BE0955B0900201B0800F3A70900ECA50900F4A7090034330800130300002CA6090047A60900DCA40900E8A40900DC200800380408003C0408000A7B985D10409CF727F80599081A059001360A2ED5D3A300D9590904090F4B00984207D30121039108980599884201D2089106940134162CADD3039800282BD0B04F069CA300D9590805820E8906890E09A800F0F0F80120A040019E71680143716009A90CA800F0D4F8A8720123F370A300DB599906890E0C1C04E002980378009803550134069B9B00DA591205920E8B189C42F2D314E0291C0C310CA800F0A6F8A8720024211C281C0C3000F076F8A0
:FB5F5000002803D0029803780098035501344F2CF1D3AB7A002B32D0002609AB7019007E079A915D0840985501360A2EF5D3171C181C83F72CFB142800D909AFAE7A1CE000240098015D013902D30155090611D1211C0CA800F04AF800280BD0211C381C00F03CF8002805D0211C0CA800F047F8013E04D001344F2CE3D3002EE0D10A220CA9281CBEF728FF00240325211C0CA800F024F8002800D001256F4E2A1C211C301C00F03EF801344F2CEED3211C301C002200F036F883F711FA684B9868C00701D500F092F80198C378002B01D082F7CFFA01200FB0F0BC08BC1847CB084907490FC05C0841C007C00F7047CB084907490FC05C0841C307D81701D0
:FB604B00307047CA084B075B0F01219940835C0B4383547047CA084B075B0F01219940835C8B438354704730B50B07DC0E090989000323A340DD4343581D40A2402A43425030BD10B50022835C8C5C2340835401320A2AF8D383F79DFA0022142801D214231A1A101C10BD10B50022835C8C5CA343835401320A2AF8D383F78BFA0022142801D214231A1A101C10BD70B5CC085318DA084E07760F5D076D0F002102E0002343540131A142FAD9311C05E001238B40065D1E43065501310829F7D302E0FF2343540C1C611C9142F9D9291C05E001238B40845C9C43845401310829F7D302E0002343540A1C511C0A29F9D370BD30B5FF25FF20D1309BF70CFB1E
:FB614600041E40D005700E234370CC20A0700123E37015494F2301205854C822201DBEF760FE14220F49201CCC30BEF75AFE50220F49201CE030BEF754FE50220D480168201CFF303130BEF74CFE50220A480168201CFF308130BEF744FE0EE0C046E8A409000C470800DCA40900ECA5090034330800380408003C040800FF22D132211C024890F79AF930BDC046C050080030B50024ED209CF71DFC4106490E6D209CF70AFCEB209CF715FCC506ED0E63071B0E1D43ED209CF70DFCFC210140E306980F01436D209CF7F7FB291C6B209CF7F3FB002C04D10B4908680068C5F744FD62200021A3F7EAF9002802D00134192CD8D904490868C068C5F736FD20FD
:0B6241001C30BC08BC1847C00B080054
:FB62540010B5C3699B0121D5C17B03291ED9038E0F2B0BD1042909D100214B000D4A448E9A5A944212D001310429F6D3006887F713FF0368002B00D00123002B08D0037C122B05D144300078002801D0002000E0012010BD40A50900A048A1498865704710B5A04C2068A04902C0A04AA04BA1490EC0A14A9007800F01D1116808E0121AC0001368C3402021081A516881401943C80F9A4C2070012802D100F01DF801E000F03BF810BC08BC18470023944803700123944803700023934803609348036093480360282393480360072392480370302392480360704700B5FFF7E6FF8DF78CFC854A9007800F01D1116808E0121AC0001368C3402021081A5184
:FB634F006881401943090105D58648036802200343844803608DF722FE08BC1847000000B5FFF7C5FF8DF7A9FC744A9007800F01D1116808E0121AC0001368C3402021081A516881401943090104D576490B68022083430B6008BC18470000F0B582B0041C01910025009566480378002B00D186E00B1C6D490F683F0C3F045B006B481E5A002E01D1351C77E0201C00F049F9002800D0402666480368002B07D0602E01D1E0261AE0702E08D1D02616E00198042801D0022801D101252D04302E05D16C23185D002801D05B4E07E0502E05D1236FDB0502D501235B041D433543554B9E4203D033095448C15C0091302E0BD16C23185D002807D1201C2830A1
:FB644A00037D807A19180906090E0091009803031D43E37B002B02D00123DB031F43E37C032B04D1A08CC306180F03021F43402E25D136480378002B06D0201C00F0E6F803071B0A1D431AE00123DB041D43A07B9BF70DFB40082F4A10602D4A11689BF7A2FA2D4A10602D4A1368984204D2201C00F0A9F8002802D001232448037030480560476002B0F0BC08BC1847F0B582B00F1C051C00220092019000F0C4F8284E002877D034681948017800294DD1A87B9BF7DDFA4008174A1060154A11689BF772FA154A1060154A1368984204D2281C00F079F800284ED001230C480370194B1C4048E0C046B5620900201A0800C40508002D630900AB630900D79B
:FB6545006409006F6309004405080050CD0800F5A70900F6A70900B4A60900B8A60900BCA60900C0A60900F7A70900C4A6090070010F0074820E0058050800C4C9080080010000A405080070820E00FFFFF7FF6B6E1B0612D4012910D1281C00F036F800280BD1A87B9BF785FA41083A4A116000233A4A13700123DB041C4337480378002B03D001988CF788FF0090344B1C40009803071B0A1C433460042F01D0022F05D13368012109040B43012107E02D480378002B06D033682B490B40002133602848017002B0F0BC08BC184770B5041C6434207F430125495D1877F7D0FB061C2D68002D13D0EB68002B10D4207F93F7CCF9EB68190109099BF7D8F97F
:80664000903631881B4B1A68891A884201D3012000E0002070BD10B5041CFFF7D9FF002802D01549087802E0201C8CF738FF10BD017C012905D003290DD3042901D9132909D164300121007F81400C4A1068084001D0012000E000207047C046B4A60900F6A70900FFFF0FFFF5A70900FFFFFEFF542A0800C4A60900F7A7090008020800ED
:FB67100070B50E1C0124051C77F753FB31784B10072B0CD14B4A11884B0708D5231CAB40494A118C194002D091F709FB0024201C70BDF0B583B04548037E002B64D1424CE369FE2003405FD04149C87C431C1806000E77F72EFB051C82F77DFF00280CD10126301C77F725FB051C82F774FF002803D10136082EF4D346E0281C44D0694682F77CFE002804D03249887881F7B3FF3AE00126301C77F70CFB051C82F75BFF00282ED0286875F752F9002829D1286801238340218C194023D16EF710F90A226946843003F062FE00281AD002980121C90708430290E8690006C00E072802D2E86C00280DD4281C82F732FB071C021C6946281C75F7CFF83A1C691F
:61680B0046281C82F734F90136082EC5D303B0F0BC08BC1847011CC26900201206D20E072A03D2C96C002900D50120704700B50B4A012301688B4011881943118075F73CF908BC18470000C046DCC908000C470800F42D0800343608004C0408002C470800DC
:5868740010B50124201C77F7A2FA00280FD0C3695B070CD0C36CDB009B0F032B07D103F0EBFD041C0A490B690A48034309E00134072CE7D903F0E0FD041C05490B69054883430B616FF788F9201C03F0DDFD10BDD820080000000020F8
:5468E000F0B581B0814221D000246300104A9A1801258540EE435388334053801F1C53893340538101238B401E1C3B4000D02F43F34300933B40538057893E4000D02F43009B3B4053810134032CDED301B0F0BD0CCA0800D4
:FB693C0070B5051C114801688023194001D0002409E00C1C02E09BF74FFB0134AC42FAD312E0AD1B01340A4E731C9D42F9D206E0B6F7ECFB301C9DF726F8B6F7ECFB013CF6D2281C9DF71FF870BDC04608A00F00D330000070B5041C0026524803689B0724D5251C50350123EB734F4BA07B185CAB7C022B0DD14D480378012B07D84C4A13689B0603D50670022071F734FC2E6001E0032803D20D2323745423A3746B7B002B03D04348036843480360A681201C8BF7DDFE70BC08BC1847F0B581B0041C002363654B075B0F051C5835012B23D12830061C76F7E5FBA07B384F38607B6880218B437B60F37D354F3B60311C6FF738FE344F7B8B0093334B3240
:FB6A37007A2978201C88F7C4FD01236B72287879F77FFF2978082079F79CFC2CE0036D002B14D06B7B002B0CD0807B9BF729F880080223E3744300981D43015B09A361201C01E00123E37470F769F914E0EB79002B02D16B78002B02D087F73AFF0BE0AB78002B05D0EB78002B02D10121E97000E0032187F705FF0023EB716B730C2323743023A37401208DF797FC01B0F0BD00B52C220F490F48BEF7ABF90E480E4981610E4B186000BDC0462C8B0E0051C5080045220800BCC90800B804080028FC0E0000820E0020820E00D8200800A7ED0100A0CE0500C8A6090091690900C404080000B5431E044A1360044A13685B0301D4FEF7C9FF00BDC046E08A6C
:066B32000E00100B08002C
:346B400010B5041CC069C30B2121194020290DD10306DB0E062B09D8054803689B0705D4201C82F769F9201C7BF75AF810BDC046EC1B080053
:3C6B840010B5041C74F77FFF0B490B689B070FD5E069C30B21211940202909D10306DB0E062B05D8201C82F745F9201C7BF736F810BC08BC1847C046EC1B080012
:286BF40010B50C1C0368002B0AD190F7DFF9002806D00121207F8140024803688B43036010BDC046D82908007A
:586C300010B5041C13225C300188002094F7B2FBE3691B06DB0E082B11D307D00A2B0ED809D20A21201C78F75BFB08E00921201C79F744F903E0201C85F774FD0BE0201C7EF749FB201C7EF75EFC201C7EF754FB206877F703F810BD6F
:FB6C9000F0B587B0061C04910B1CA64902910A68002A05D0191CC4F7FFFF002800D03BE2A14C04992164211C4431009100238B709E488568002D00D12EE2AB7D002B07D00023AB756361237810208343237006E06069002803D0012E01D96FF7AAFA22691D27FF03002A56D0607A012803D19389002B50D04DE08E4B1B5C002B49D1BB68DB0748D4137D092B43D0052B41D0082B3FD0042B3DD00A2B3BD0042818D1012E16D196756261237810200343237023683B6080498B7A022B2DD000237E490B607E4908687E490B6803600B68036022E002280AD1012E08D196756261237810200343237023683B6015E0032803D175498B78022B0FD0062801D003BA
:FB6D8B002805D1012E03D1BB689B0600D57CE1122803D0102801D06FF7FAF9664B985D0390002853D00123DB073343019367490B689B0C9B040B600B68654803430B60654B654908689863654901220A600099CB78012B30D00298426F002A05D00120C4F75DFF002800D099E100990122CA705C490B685C490B605C490B685C490B605C490B685C490B605C490B685C490B605C490B685C490B605C490B685C490B605C490B685C490B605C490B684A490B605B4908685B490860A87B2318042801D3187800E0205C6F229043187059E0A87B225C0F218A433107090F0A43225423180428049802D38107101C01E081071878490E6022904308431870344989
:FB6E86000B689B0C9B040B600B68474803430B60324B4649086898630099CB78002B30D00298426F002A05D00020C4F7FAFE002800D036E100230099CB703D490B682A490B603C490B682A490B603B490B682A490B603A490B682A490B6039490B682A490B6038490B682A490B6037490B682A490B6036490B6818490B603549086829490860002101912868826A281C0021C4F7C8FE002867D024231A5C002A63D00399002959D18368002B5DD054E0C046041B0800C82C080004220800C0BF0500702D080060000F00802D0800940208004C2A0800B88A0E00222502002CFC0E00A4020800E08A0E00A8020800D8FC0E00AC020800E0FC0E00B0020800CCE4
:FB6F8100FC0E00B4020800C8FC0E00B8020800DCFC0E00BC020800D0FC0E00C4A50900D4FF0E00C8A50900CCA5090030FC0E00225502008C2D0800902D0800942D0800982D08009C2D0800A02D0800A42D0800B8A50900BCA50900C0A5090004E0802301981843019001E0012200E00022237880208343D0010343237020200499084001D00120C003A24908600499090704D4A0490B68802083430B600499880801214140A27880208243C8010243A2702868826A281C0321C4F737FE74F784FD05A9954803687020034018099AF71BFD2369002B14D0637A032B11D187F762FF002806D18E480368032B02D00368062B06D12B7C122B03D100980121817089
:FB707C0054E005988007800F06D003280AD1069B84490888834205D36FF781F8009901224A7043E00820B860A87B786223683B603B1C1833221D03929207920F02D1039909680FE00399891A0391D2000968D140049120218A1A03994968914001B40598014301BC1960BA69331C103B042B0DD2FF23013383406C4810401843B861102E07D16A4908686A49086002E066481040B8610198002800D07861E5602672002300990B704B70281C8BF7D7F907B0F0BDF0B5604CE568002D02D1201C0930A4E0EB7B012B09D1201C1830AB7BD9004358594A13600B185B685360217A574F3868012901D1084301E04008400038602868826A281C0021C4F799FD00CF
:FB717700281ED02423195C00291AD04E4E237AF15C002902D18368002B12D06FF7A4FA237AF05C49490B68002803D001204006034320E0464803400B603B6802210B4318E041490B68414803400B603E4E237AF05C002802D03E49887901E03E490868236CDB0601D43C4908603023DB432E3338680340391C0B602868826A281C0121C4F757FD071E12D00368002B0FD03349086900010BD41022391D3148BDF709FE386830490B6883210B40184303E02D4A1068832108402B490860207A335C2A4A002B136814D0012189030B43136027490B6827490B4027490A7852021343264E3360264E33683026B3431021194308E024490B4013601D4A13681F4AAF
:8E72720013601F4A1168204A116060720023E360201C0830256100220270F0BDC046648B0E00A4860E0024860E001C840E0068BB0800FFF0FFFF3406080064FC0E00C82C080018820E00A8860E00C0BF05001C800E00FFFFFFFDC82D080014040800108B0E00D820080080810E00E88A0E00808B0E00842D0800FFC1FFFFA102080088FC0E00882D0800FFBFFFFFCCFD0E0008
:92730C0030B50D1C041C72F7F0FE6B075B0F012B05D1E37B002B02D1A07B9AF748FD30BC08BC184700B52C2204490548BDF776FD034804494161044B186000BD2CC00500F4A609000D7309001803080007490B685B0203D506490B689B0305D505490B689B0501D5012000E000207047B4800E002CCD08000C800E00FFF7E8FF00BD02B4FFF7E4FF02BC002801D08BF72AF88BF71CF836
:3873C00010B50A4C2168012292030A432260084C2368DB0608D54A0406D4036D186BC00602D501230348C37710BDC046808B0E0008800E00242208009C
:387448000B490B680020D87370470A490B7C0020002B00D1012070470120054A1368D97B002904D1034A117C002900D1081C7047B0A20800986308000C
:FB748C0030B5041C1D480368002B04D0002303602823002018551A4D00216962A96279F73FFA18480368002B03D176F748FC002803D1012093F75EFD04E077F7D4FB2834042020700023104A13701048037801221343037002F05EFC281C8A300621BDF7C9FF0B4A13680B4A13600B4A13680B4A13600B4A13680B4A136030BD5CCE0800D82008005CD20800ADC50800140B0800B8A50900D4FF0E00BCA509002CFC0E00C0A5090030FC0E000C49012807D10C4A13680C4A13600C4A13680C4A08E0002809D10B4A1368074A13600A4A13680A4A0B601068486000207047C0462CFC0E00C4A50900D4FF0E00C8A50900CCA50900B8A50900BCA50900C0A5094E
:017587000003
:FB759400F0B582B0061C041C6946807B9AF770FAA16918344A000098824201D3151A02E0831A424AD51A424FF37C032B24D17B1C9D421AD940089AF711FAA589011C281CBEF75EF80130012819D0031C6B432068C0183840206042000098824201D3151A0EE0831A3148C51A0AE0022D08D8314803699E4204D002E07B1C9D4200D900256908301C71F724FE281C02B0F0BDF0B582B0051C041C18346946807B9AF728FAA17B009E8B0702D52148431C5E406089002807D04000864201D3361A02E0831B1A48C61AA789391C700875F7F8FC3B1A5800F307DB0FC61AE37B002B0AD0042E18D9A18900983318180140099AF7B6F9002613E010490B68702003E2
:FB768F00401809AB7B834202D1042E05D201E0082E02D2A0894300F618009833181801400920607108281C71F7D5FD301C02B0F0BD00000010FFFFFF070422080024860E00014B02480360704748A509009414080070B5041C00216FF7D1FE002803DA0123B348437143E0061C251C7835687A00280DD1A07B9AF7D8F94008236DB83319689AF775F9002804DC687A002805D0002E03DD201CB3F799FF29E0E37B012B03D1002801D101236B72A87880210143A14A1160082105206EF7EEFA9D4A5379002B15D1B1F7DBFB201CB4F772F8B1F7F5FF0023AB74FF200C30231800201870201CB4F787F8201C01F0D1F801F071F970BDF0B584B0041C051C8F4819
:FB778A00C37F002B17D0E37B002B35D1261C81363378002B30D102A9A07B9AF76EF902988007800F032802D1039B6E2B01D2002822D101231FE09BF7B9FEC30707D50123804A537420688169201CC4F76BFAFF230B33E6183378002B0ED0E07B01280BD1A43461682268501C0027904200D20127791803C400233370B1F7E4FF2B6DBE331878C00070490B580C18002B0CD5EB7B012B09D1FF200830285C002804D1A87B9AF745F94008206004B0F0BC08BC1847F0B581B0041C051C80350023AB81EB76FF230533C1180091CB790133CB71C37B012B13D1CB78002B12D15B4803689B070ED5A07B9AF723F981084900A069814206D09AF7B8F8400068600134
:FB788500E000F084FE52480768BB0735D551490B685B0610D5A07B9AF70CF9400828846B78012B08D102236B70236D588900016884201CB3F702FE0098C379012B05D17DF7E7F8011C201CB0F744F9424EB379022B12D1236DBE333068197888420CD17DF7D7F872799119C8717079411C0720BDF706FF70710023B37306203840062840D134490B685B0604D4A07B9AF7D2F840082884236DBE33187887F762FB201C00F0D4FC6B78012B08D102236B70236D588900016884201CB3F7C0FDE37B002B16D1264801784A1E1206120E012A09D1234E3368234A13403360234E3368234A134033600170391C201CB3F7D3FD03E0391C201C00F0F7F9201CB1F72A
:FB798000BFF80023AB7217E0002300988371BB070AD5A87A17490B78984205D2E37B002B02D00130A87207E02B7E002B01D000232B76201CB3F751FE01B0F0BC08BC1847082D0800A4860E002422080068D2080030A70900BC8B0E005C14080020A7090079D208001C800E00FFBFFFFF7C8B0E00EFFFEFFF8CD2080000B5017D062901D0072902D100F0B3F809E0037D032B02D100F0E6F803E0042B01D100F01FFC08BC1847000010B500290ED1B6498B79002B07D0B5490B69834203D14631012008702FE0FFF74DFE2CE0041C012904D1FFF7B7FC01F005F824E0022922D1C37B012B05D1036B002B02D02830C38BA38100F0F7FFA649CB7F002B10D00000
:FB7A7B0023A4480360A4480368A44803600023A4480360A4480360A4480368A048036002E0201C00F06CFA10BC08BC184770B5041CC37B002B1CD1021C80325378002B55D101235370807B99F7F9FF4008236DB833196899F78FFF011E48D0206D83F7F7F8236DB033188860841834012323723DE000F051FD8D49487C01384874487CFF220B32A31800221A7001280FD1884E3368884A13403360884E3368884A13403360221C8032938B864D2B40938300281AD0221C8032D37E002B02D1908BC20612D5087C010712D476490B687E4803400B6070490B687C4803400B607C490B687C4803400B6002E0201CB3F779FD70BC08BC184730B5041C803043780E
:FB7B7600002B15D10323E374202101230B55837E002B01D00123C372A18CA06975F75EFA638C984204D06084216DB03188800880FF230133E158E518A06999F71EFF216DB2310A88011C101CBDF769FD011C201C00F0A3F9A3692B60201CB1F7DAFD0023EB7101235D48037030BDF0B585B0041C051C8035EB7A002B08D0036DBE3319780820AFF71DFF0023AB76EB72236DBE331878C00052490B181F1C221CA43251681368019300200290381C80790190002002900198C018834201D8002300E00123591810605160D1689668019600200290381CC07980190023B04200D2012359189060D1600023391C8B71CB716B78032B1DD0A07B99F725FF400829D4
:FB7C71008C431A1E04360C688C002812D0864210D3236DBE33187801F0D0FE03236B70201C6EF7B7FE236DBE3319780520AFF7CAFE60E06868002808D003900023049303A9A07B9AF747F800236B606B78032B11D0FF200930205A864209D8A07B87F759F9002804D1201C00F040FC002802D01D49C8780CE06B78002B07D11B4BA07B185C032802D21849887801E016494878A0742DE044220800C82C08002422080064830E00980208005C000F00808B0E0014800E009C02080068D208001C800E00FFBFFFFF7C8B0E00EFFFEFFFEFFF0000FFFDFFFFFFFBFFFE608B0E00FFFFF7FFF8A7090030A709009014080051C50800201CB3F7B6FC05B0F0BDF0B55E
:FB7D6C00051C0E1C036DBE33041C1878C000BA490F188034A37F002B11D0311C281CB1F710FAB64A537C012B09D9E37E002B02D1A08BC10603D5311C281CB1F7D5F9B0490B681B070DD56378022B0AD17B79002B07D0A0898004800E0023002800D101232376F0BDF0B5051C046D261CB036238B5B0070881818A969431858014009B0602F1C803700237B700223EB74A861F18899F7F8FDFF2101316850B38833806B84F3887380AB84EB7B012B04D1E07D4300944858432863E38B1B017B84281CB3F749FB00233B76E37DE370238BA380608BE388834207D16389E18B8B4203D12389A18B8B4208D0E080E38B6381A38B2381206B042108432063307B9901
:FB7E6700F727FE40083884F0BDF0B5061C046D7F4803689E4201D1B1F7A6FC351C8035288901380ED32881288904236B70002808D1301C6EF7B3FDBE3421780520AFF7C7FD31E0687800281FD1B07B99F701FE4008B034A16899F798FD01239B0698420CD267883B1859014909381CBDF7DFFB7843A168081840014009A060A06800236B700223F374B0610BE0022809D1AB7E002B06D0EB89288A834202D1301CFFF764FF301C6EF723FFF0BD70B50E1C041C7834E38A5B18E382051CB3F74FFB286D0069C004C00E7043E17809182520BDF7CAFBE070E1781F2905D90B1C203B01209840237A02E001238B406068184004D16078BDF7B8FB5435415D424A3E
:A27F620013689B0607D4E17202200A2900D8012040184300A37070BDF0B581B0071C041CCC346268011C90680090364E337CFB20034033749C31088883049D0E737C012B09D9D368AB4203DCA368DA68002A05DD1023184301E02F4B184008802178CA07D20F0099B0F7ACFF737C2B49012B0B6824D90120800303430B606368D868A8420EDCA368D86800280ADD381C01220021B1F743F82178CA07D20FA16889680AE0291CE3
:FB800400381C0022B1F738F82178CA07D20F616889686918B0F7A1FF02E0184803400B6001B0F0BDF0B581B00090051CB035A97BFF2329334B4312495C184A21201C02F033FA19232374002060740E4BA17B595C032902D20C48817819E00B4816E0C04630A7090068D20800A82D08007102000004220800EFFF00001C800E00FFBFFFFF00A4080051C50800901408004178A1742B7BA3736B7BE3732B8863846B88A384A968271C783700227A720223E374A16100982065FA70BB70FA72261C9C360123B3700823BB84BA49CB7CF370FF2107316318B848017A1970A97B4D23995561239955331C3C337363331C5033B363A18C06224A43F280201CB3F7E0FD
:FB80FF00F90099CA68097C201CB3F7EFF9AB4BFB82AB687366201C0121FFF7FAFE6B7B012B02D1009882F728FDFF210D31631800225A70A34F236DBE331978C9000123DB07CB51A04B1968201C6EF7EFFB86F779FF9D4900983C30062202F0A0F900280CD19A4EAB7B33600223B3717F21C943F01D072202F08BF900217171236DBE331978C900791800224A7101B0F0BD30B5041CBE342078FF23293343438D495D181D3082F75EF9281C6EF76DFC86F74AFF8748036821788B4203D1FF2303600023837130BDF0B583B00291FF23293343438048C618356D02F04AF9371C90372C1CB034029B8E22925B9A1A1204120C638853433A6FD2185101490901910D
:FB81FA0002F03FF9F37B012B0ED16B8B5B000093288B4000019A101841014909181CBDF758FAA0800098E080281C82F7A8FCF37B002B0ED1E68870086883A188019899F7DAFBE288011C101CBDF743FA301A40082883029B581E38800123BB7203B0F0BD704730B5041C056DC37B012B19D15A4829690904490F4900514B5A7A5200125A085A1018564A1178411A201C6FF78DFCE878430053485843534A11780B18236302E0807B99F78CFDBE350121287881404E4803680B4303604D48E37B012B00D14C4803680B430360A07B99F7F8FB4008A034208030BDF0B582B0041C3A4E051C006DBE300378DB00F118424F3B689C352A8801B4101202905B07D80D
:FB82F5000F1307DA0F824201BC0CD0AB78002B09D1019A002A06D0CC231A5DD20702D58B7901338B710378DB00F01839684B07D90F4379002B03D1002901D001234371201CB0F730FE236DBE331878C000301839680B07DA0F29884B07D90F8A420BD08C23195B89048B0E06D0CC342178890702D5C3790133C37102B0F0BD10B5052383811F4C21680E220A40062A02D181692A3108E08B0702D481692C3103E04B0704D481692E310B8801330B8013235B0414490B601449CB69002B34D1134927E008960800C82D0800FFFF000030A7090094140800C2C5080020A7090000A4080074E50500C8020800710200007414080084D2080080D2080088D20800E2
:FB83F000A88B0E00BC8B0E005C000F0058B5080014800E000A68C37B012B05D180231A4388689B04184388600A6010BC08BC184713235B04364803603648C369002B02D1354803680360704705238381836926331878012816D13148314B036031490161314941600022D343304A136000235360294A13688020034313602D4A1368800403431360704700B5C369002B20D013235B041F4A1360274A1368274A1360274A1368274A1360274A1368274A1360274A1368274A13601948264A13680360264A11680161254A1168416012486EF71BFB08BC18470000174A1368174A1360174A1368174A1360174A1368174A1360174A1368174A13600948164A13A9
:6584EB00680360164A11680161154A1168416000207047C0465C000F0058B5080014800E00CCFC0E00414500001CC8000020C90000108B0E001C800E00ACA50900148B0E00A8A50900A0800E00B0A5090094830E00B4A50900D08B0E00982D0800A02D0800A42D0800DE
:68855C0030B5041C036DBE331878C00014490B580D18002B0DD4A07B99F7A0FA4008296899F738FAFF210931615A884201D9012000E0002030BDFF210831431801211970084A13788374036DBE331878C00004490123DB0743500818002303717047C04630A70900901408009F
:D485D00030B582B0051C84686946201C99F732FB009883079B0FFF2039305843019BC0180E4A1388984202D3231A0D481C18211C0C48BDF747F80130E8830B4A1368E4180A4A136CDB0601D409480460503CEC82084B09490B6002B030BDC04674A50900E20400007102000014040800C82C0800108B0E00FFFFFF00F4800E00F0B50D1C114C20600B68DB0701D599F7C8F90F4E0020706637680E483840306099F7C2FC99F7C0FC2868E0606868A0600220706699F7B8FC99F7B6FC99F7B4FC37600020E060A060F0BDC04600820E001C800E00FFFFFFFD5B
:8086C400F0B51D4C2378002B33D0051C6078431E9B00D91D0906090E132092F714FD061C24D0A11C6278B27003300FE04B781B020F783B4303701B0A4370CB781B028F783B4383701B0AC37004310430013AEDD21D21201C01F0C8FE0023084A1370281C01F0AAFE301C92F77BFC04E003490870281C01F0A1FEF0BDB85A0800C2CD0800A1
:FB87500070B506794588281CADF74AFF041C701E09285FD801A1095C8F44C0460A301EB86EB87690B2583648037C002B05D13C210F20AFF707F8012005E0002C4AD0281CB0F716F80220AFF746FF43E0281CB0F70FF80120AFF7E5FF2A490B680020187029490B78022B35D101230B70281CB3F7D1FF2FE0281CB0F717F80020AFF7D1FF20490B680020187024E0281CB0F711F820E0211C1ED0236B0820834323632031201C0C300522BCF717FB13E0002C11D0236B0220834323635B070BD5201C0021AEF7FAFF236B04229343236302E0281CB4F7F5FA70BD00B5012802D1AFF780FF0CE00020AFF79DFF084800231A1C191C92F7ACFE0F200221AEF7A4F9
:15884B00FF00BDC04698630800BCA2080094D208000E20000051
:FB886800F0B5071C244C261C453600233370234803681B071B0F012B02D12149887B09E003681B0703D11F490868088802E00023238730E01C4A1178431A23871B4A15681AE0281FEB7A012B15D101688A6A0021C3F7F6F900280ED020300379002B0AD0C078831E012B03D8238F608F834202D00123337003E02D680C488542E1D13378002B08D03D68208F291C41430848BCF7CDFE281A3860F0BD0422080010000F00182108002C0B0800C80208000803080040420F00F0B588B0051C10233E490B60071CCC37387800286CD03C4B3C4818613C4EEB7B012B13D13B4CFF200B30285C002808D0394C9C23585B000700D5384C0123DB071C43336880200306
:FB8963004333600BE0344C9C23585B83049A0E00D0043212028007800F1043F061281CB0F738FE3878C30701D52C4B1C43830727D52B4B1C432B4A107C010706D52A4B1C4333680120C004034333602B1CAC3303CB071C031C0006000E244AD062180A0906014304910B06224A0A4012021A43390C1F48014011430498000E08431B4A9062B4352B680E490B6068684860A8688860E868C86017490B68DB0608D4306A012189030843306202E00024134908600120400620430D49086008B0F0BD5C000F00089A0E0020200000608B0E00801100048031800480318044800D8004200201004000020068D208000004000164830E0000FF000008800E00189AD9
:568A5E000E000F4A1068C306D80F4342581C0D4A1178014013D00C49086800230B6003235B040A490B600B60084908600023137004490B68DB0602D501230548C3777047C04608800E00F8A7090064830E005C000F00242208000A
:FB8ABC00F0B585B0071C4468049480780607360FF978019181090091062E00D983E1C34D2B78C3490879834202D3281CAEF7B2FDBF484188002923D00378002B10D06B78002B04D0BB4899F781FB002818D000236B70AB70B64A508850214143B54805E02B78B448002B04D15022514399F723FB06E099F76BFB002802D0281CAEF78AFD28782923191C41430291E91C8807800F01D10A6808E0091AC0000B68C3402022101A4A6882401A430298A349715C81548018032E01D0052E3ED1A04A13681B0600D425E1009A427001998B1F0372211C09300622BCF74AF90634E91C8807800F01D10B6808E0091AC0000A68C2402023181A4B68834013430298C0C9
:FB8BB700180230211C0622BCF733F9052E00D0E7E00634E91C8807800F01D10B6808E0091AC0000A68C2402023181A4B68834013430299C8180F30019A0C3ACEE00098C007C00F0090042E06D07E4A1368F87879684018C07858727B490868C379012B17D10099201CAFF748F8042E05D1AFF766F8002800D1CEE04DE0FF2803D10099201CAFF78FF8AFF76FF8002800D1C2E041E06D490B78002B3DD0042E18D16B480390211C1030062201F01DFC002800D0B1E00399887D03071B0F00998B4200D0A9E08023034000D1A5E04006400E20E00922835601200856834200DA9BE05B480390211C1030062201F0FDFB002807D10399887D03071B0F00998B425D
:FB8CB20000D18AE0211C039810300622BCF7B3F88023009818430399887501210391E91C8807800F01D10A6808E0091AC0000B68C3402022101A4A6882401A4302988018009A4270211C02300622BCF794F83A480378002B1BD0E91C8807800F01D10B6808E0091AC0000A68C2402023181A4B68834013430298C018F9787A688918AFF72DF90006000EFF2801D000210391042E09D12C490B688020034004D12B490B685879002839D00398002836D00634019EFA363606360E0196E91C8807800F01D10B6808E0091AC0000A68C2402023181A4B6883401343029EF018019A02720930211CBCF748F8E91C8807800F01D10B6808E0091AC0000A68C2402095
:5B8DAD0023181A4B68834013430299C8182830F9787A688918C97801702B7801332B702B7807490879834202D3281CAEF73AFC049898F79FFC05B0F0BDC04657C80800B4A208008DC80800B8E30500A82D08007851080062C808000CA30800EB
:FB8E100070B586B0051C4C68032369460B70061CA836307800281CD00C3402285ED9052800D2BFE000D1DEE0072800D2E3E000D10CE10E2800D252E100D1ECE010281ED300D1FCE0122800D249E1132800D946E179E0032A00D042E1281C8830B3F7ABFF281C9030B3F7B9FF286B802108432863800603D42021B07DB3F762FC05E1112A00D02CE10822291C94316B46581CBBF7C3FF291CA431684609300222BBF7BCFF0822291C883168460B30BBF7B5FF291C9031684613300422BBF7AEFF17226946B07DB3F711FCD14803681B0703D5286B800600D500E10123337000E1042A6DD10822611C281C7C30BBF796FF211C0931281C84300422BBF78FFF0878
:FB8F0B0022291C8831281C5430BBF788FF0822291C7C31281C5C30BBF781FF291C9031281C74300422BBF77AFF291C8431281C78300422BBF773FF13203378012B00D112203070281C00F07AFACBE0122A1ED1291C6431281CAFF728FE291C7431281CAFF72FFE296B88040AD5081CAA4988432863281C00F032FB3378122B1FD11CE004203378122B00D0ABE00320A9E0052A03D1286BA04908433EE00D2A00D0A1E06178281C00F0EAFA9CE0052A09D1281C00F014FB3378032B01D105238FE706238DE70D2A00D08DE0286B102188432863B07D0021B0F702FBB07DB2F7C3FF6178281C0022AEF76CFC002378E7062A79D1281C01220021AEF763FC05E013
:FB900600062A71D1281C0021AEF775FCB07DB2F7ABFF0E233370286B80218843286363E0032A61D1286B8021084328632021B07DB3F78BFB281C8830B3F7C2FE281C9030B3F7D0FE102326E0112A4DD1281CB3F7B6FA072345E70B2A46D1286B102188432863B07D0021B0F7BBFA281CB3F7ABFA694A13681B0713D501F0F5F9041CB07D0121B2F766FF201C01F0F5F9286B2021084328630F233370B07DB2F74AFF23E00822291C94316B46581CBBF7BAFE291CA431684609300222BBF7B3FE0822291C883168460B30BBF7ACFE291C9031684613300422BBF7A5FE17226946B07DB3F708FB0223FDE6307006B070BD70B584B0041C4E680C36042369460B36
:FB91010070051CA8352878002816D0082800D28BE100D1ADE0092800D1B8E00C2800D2C0E000D1F5E00E2800D212E100D1D7E010285AD300D078E1DFE0032A00D074E1384A1178201CCB0703D41A21B3F782FA6BE17C30B3F737FE201C8430B3F745FE0822711C201C9430BBF75EFE311C0931201CA4300222BBF757FE0822311C0B31201C8830BBF750FE311C1331201C90300422BBF749FE0822211C8831201C5430BBF742FE0822211C7C31201C5C30BBF73BFE211C9031201C74300422BBF734FE211C8431201C78300422BBF72DFE211C7431201CAFF7FAFC206B400603D42021A87DB3F7B5FA0F2382E0112A00D01CE10822211C7C316B46581CBBF7A2
:FB91FC0015FE211C8431684609300422BBF70EFE0D226946A87DB3F771FA044808E0C0465C1408000020000008960800D8200800806A820003D5BB494A68D0060ED4216B4906C90F201C002904D00622111CB3F7C9F801E0B3F70AFE0023E7E0201CAEF70EFBB1490B681B0703D5206B400600D5DBE00823DAE00E2A04D1201CB3F7D1FD0A23D3E00F2A00D0D1E0201CB3F7EEFDE2E70E2A04D1201CB3F7C3FD0B23C5E00F2A00D0C3E0B7E0062A00D0BFE0206B102108432063A87D0321B0F796F9201CB3F77EF9A87DB2F754FE2B78201C00210A2B03D10122AEF7FAFA01E0AEF710FB0E23A3E00A2A00D0A1E02021A87DB3F731FA10232B70A87DB2F7203D
:FB92F700FE97E0112A00D094E0A87D0121B0F76FF9201CB3F75FF90C238AE00B2A00D088E0206B102188432063A87D0021B0F75FF97E4A13681B070ED501F09CF8061CA87D0121B2F70DFE301C01F09CF8206B40210843206382E70D236AE0032A69D1201C7C30B3F734FD201C8430B3F742FD0822711C201C9430BBF75BFD211CA431301C09300222BBF754FD0822311C0B31201C8830BBF74DFD311C1331201C90300422BBF746FD0822211C8831201C5430BBF73FFD0822211C7C31201C5C30BBF738FD211C9031201C74300422BBF731FD211C8431201C78300422BBF72AFD211C7431201CAFF7F7FB0822211C7C316B46581CBBF71EFD211C84316846D4
:FB93F20009300422BBF717FD0D226946A87DB3F77AF94848806A820003D544494A68D00605D4201C0622111CB2F7E1FF19E7201CAEF72AFA09232B7004B070BD00B5002808D0BD231B5C002B02D1FFF7E8FC01E0FFF756FE00BD70B5051C01F00EF8041C36488368002B04D1354B8360C0606BF786F9334E3448B060F6603169002908D00868012201E0013200688842FBD10F2A0FDA082098F735F900280AD045603169002904D00B6803600860306101E030610060201C00F0E9FF70BD10B5041C20488168002903D120488168002901D0C2F7F5FB00F00DF8002807D0201C6BF75AF90023A360E36000F071F810BC08BC184714488368002B03D114488310
:FB94ED0068002B01D0002000E001207047F0B581B0071CC1680091B0F7FAF8002838D1009908690025002831D00668311C864213D10FE0A04808005C140800D8200800A8A70900AD940900B8A70900FB940900C4A208000098056101E0336803600D60002E10D07468221C211C64325431201C4430AFF7BCFF1222201C0021B3F720FC301C98F7D7F800980369002B01D1BD60FD6001B0F0BC08BC184770B5041C0D1C006B102188432063261CA836B07D0021B0F723F8B07DB2F7E4FC291C201C0022AEF78DF900233370206B80218843206370BD10B50CE00868021C884201D1002301E003680C1C23600023136098F7A2F80F4C21680029EED110BD30B523
:3895E80081B0041C051CBE3581B000210091019108BC28780A1CB0F761F8206B10210843206328780321AFF7EAFF201CB2F7D2FF01B030BDC8A709003E
:7096240000B5417C18224A43174951180A23CA56002A03DD013A8A72B2F7CBFB00BDF0B5061E20D00768002F1DD0407CACF7CEFF051C707C182141430B484418786890F7B2F998F7A1F8381C98F758F800233360217A01312172217A04480278A88D90F7E7F800232372F0BDA8B508009814080034
:FB96D400A82300211954016BE02291430122520391430163704710B52948042100F0DCFE284C201C052100F0D7FE2748052100F0D3FE0023236110BDF0B5051C224C2369002B02D00C232B7018E00F1C00F0A4FE061C283500232B7019488368002B04D11A498160C0606BF719F81948A060E460276105232B70301C00F096FEF0BDF0B5051CC6683469002C16D0AFF7CDFF002812D1104F3A1C211C1331E01CAFF7B3FE381C00F0A3F80023AB60EB60A008800097F7CCFF00233361F0BC08BC1847C046A8A70900B8A70900C4A20800AD94090053970900F9A7090030B582B00C1C051C002C51D089F737FE022C0CD12823585D002849D132490B68702003B4
:FB97CF00401809A8732C1C2B343EE0032C3ED12C1C28342378012B0BD1281C86F764FA2A23585D4E2804D902232370281C72F7B5FA2378002B28D06946A87B98F73BF9009B9B079B0F032B04D1019B1F4908688342F1D81E48C36E002B04D086F768F986F79FF911E01A4A13681A4A13601A4A13681A4A13601A4A1178462099F7D7F8194A1178472099F7D2F80023237002B030BC08BC184700B514481449C863C62099F7D3F80F490860C72099F7CEF80D49086008490B6806490B6008490B6806490B6000BDC04624860E0040020800B4350800CCA70900FCFC0E00D0A7090098000F00D4A70900D8A70900AD9709004803080000B582B0FE2369460B8078
:FB98CA000190081C75F782F802B000BD00B54368002B04D010220248002191F75AFE00BDC04617200000F0B581B0051C0C1C08790002C978084350D00020ACF7B3FEFF2801D109234AE0071CACF76DFE0023038121790902E27811438186C186051C81F726F92E1CB03673885808E8806379252B0ED2384800900521BBF79DFD6179C8084907490F01228A40009B195C11431954B07BFF2329334343304819180091281CAEF7A0FE2E488566B1F719F8307B0021AFF773F80523AB80381CAEF71CFF00999E3101200870381C002100F035F8A279E179381C00F005F801E012232B7001B0F0BDF0B50C1C171CACF71DFE061C201DB3F7E9FA051E1ED0B18D0B46
:EF99C500051B0D012040031843210408432B1CA907890F01D1186006E01870000A5870000A9870000AD8703A06120E2104090C281D90F7B9F9281CB1F7EFFFF0BD30B50C1CFF23293343430548C51800F02CFDA2352C8000F030FD30BDC046B048080000A408008CA30800FF23293343431E48C118081C80304278012A04D1C389062B03D83E2002E0042A03D008200B6DAF331870704770B5061C144C0025236BDB071DD5A6421BD04223195D985D814216D1311C3C31201C3C30062200F00DFD00280DD100F0F1FC051CBE342078FFF7CCFF281C00F0F1FC2078AEF7B1FE03E0C03401350F2DDAD370BD00A40800649608001A
:FB9AC00070B582B0061C6B480168890602D502206EF7AFFB684C2568A3682360002D26D0002E18D199F727FD002814D0C30703D52A68916900290BD1430703D52A68D169002905D1830706D52A68116A002902D0281CC2F7CCF899F72BFD011C2A685269002A04D0002802D0281CC2F7BDF8A0680026A84220D0002D29D02A681269002A03D0281C0421C2F7AFF8AE8123699D4200D12661297D092907D0052905D0082903D0042901D00A2911D1281C6FF76DFD281C6FF706F90AE0002808D06369984205D166613D4800220121B3F777FD3C48C16E002904D0A368002B01D1C2F787F86CF769FBA068002853D08681017D092928D0052926D0082924D00409
:E59BBB002922D00A2920D06369984205D166612C4800220121B3F754FDA068A84206D101684968002902D00B23037508E0017D062901D0072905D101684968002901D0C2F758F8A0680223037501680A69002A02D00221C2F74BF8A068807B1B4A136870210B401909884216D1694697F72DFF6CF723FC002801D0154800E01548028800998907890F04D0032905D1019B934202D33F2301201855A06888F7B0FA012088F7C0FAA66066603C3426716671012002B070BC08BC1847C046BCC9080004220800D42D0800A01A080024860E00C2020800C0020800014B02480360704778A5090060140800FE
:FB9CA800F0B581B02F4806682F4805682F480378002B53D12E480368AB4203D12D480368B3424BD02C4C2D4FFE20284007D1002D03D02B480368DB0301D5002E1CD063681B071B0F022B02D0022098F703FA25480078606324480078A06366F7B9FA00F0D9FB822141432068642250436430BBF7BDFC431C3B6019E063681B0702D0002098F7E8F900206063A063184A13680093174A10888100081A0102181CBBF7A6FC3860C32149020098BBF7A0FC114908603868A06106490D6006490E6001B0F0BC08BC184784D20800ACC9080005C80800ECCF0800A4A509000C000F00F06508002C0B080006C8080007C80800442E0800160B08009C000F0010B5B2AD
:FB9DA3004C201C042100F080FB7F21C943E01D072200F06AFBFF2323600023AC480370AC480370AC480370AC4BAC4803600123DB02AB4803808023AB4803700023AA480370AA480370AA480621BBF748FB1421A948BBF744FB1421A848BBF740FB10BDF0B5061C051C081C0835974C2368FF2B20D09F490330062200F03FFB002819D1A079022807D12068ACF7E1FBC38D012B10D1002711E001280FD1206873F7C0FFC1690906C90E0739052903D2FF210531475C02E0122333700EE0E11DE81D0722BAF7E1FF8021E01D072200F00EFB00236371AF710823F370F0BD30B50C1C844D0331281C0622BAF7CEFF637A7F4803701422211C0A317F48BAF7C5FF69
:FB9E9E001422211C1E317D48BAF7BFFF704C00232371FF2323600021A171281CACF7A2FB002803D1281C0121ACF79CFB002806D0C38D012B12D1BE30007802210CE0281C73F745FC002809D0C2691206D20ED11F052903D2006801212060A17130BD00B5CB785B480370043166480622BAF78DFF00BD0B7959480370CB7856480370704761490A785342837349784B42C3730223C3707047F0B586B05C490B689B0500D4F8E000210391594DE9690806C00E584CC90200D4E3E0F8225159490700D5DEE0072802D0092800D0D9E0039801300190012686400021049105913D480378002B08D04749281C2830062200F088FA002800D1C4E0281C74F772F90041
:FB9F99002820D069460331019873F75DF9281CF023C156F0306B4603229A563B4B02938B1A082701B40398C75701BCBB4209DB029F7B785B421B061B16994202DA012304930593027001990F191237B87B013802D3B87300061AD12C4A0292D078002803D1608A304012D00FE001280FD169460231019873F728F9029A0020135658426A4602215356834201DA01210491208A304004D0B878013807D3B87005E01B490B79BB70208A30432082BB78002B36D1A08D304033D015498B78BB73608AB0436082608921890840A1890840304045D024E0C04620A70900C1C50800C8C50800C9C50800C05D0000F0070800F4070800ED070800D5C70800F1CE08005B
:FBA09400C2C50800CAC50800DEC5080009A809001C0408009C1B0800883608000ECA080032E0049800282FD0608821880840A1880840304028D1059A1F21281C7AF77FFB002821D0281C74F7CFF800281CD12089B04320816E4BE95C013915D3E95413E02021281C00227AF76AFB00280CD0281C74F7BAF8002807D12388B3432380644BE818037801330370FF230933ED180398013003900B2800D20BE70020A08506B0F0BDF0B505265B4CA37B002B4CD12768FF2F49D06079811D0720BBF7D9FA05062D0EA07902280BD1381CACF747FAC38D012B39D1E31DEA5600200126A67313E0012831D1381C73F722FEC1690906C90ECB1F052B28D2E31DEA56455C
:FBA18F004BC05C0123A373092900D10326434B19568A420EDA2079013020712079B04215D3002323713E480378002B0FD091F792FD0CE03C4B1856824206DD3B480378002B04D091F76CFD01E000232371F0BC08BC1847F0B5061C0F1C2F4CA379012B11D164302368007F83420CD17AF74CFC61790919C8716079411C0720BBF77BFA60710023A373351C341C6434217F9F2028569F357AF70CFC2870251CA37D0C35002B15D02368DB0508D42049086900010ED5201C8FF728FF002809D00023A3610123EB720023AB726B72201C8DF77CFF23685806000F395C002904D0154B185CA072431E0DE0114A1169C9000BD5114A11680A6853031B0F984204D133
:3EA28A0093025B0F013BB38106E0012323722B68FF20013083432B60F0BD0401000020A70900CAC50800C9C50800DEC50800C8C50800D820080072BF0500E02908001E
:60A2D80030B5051C73F771FD041C281C85F7FCFA1149201C2830062200F0D4F800280BD10E4C25600123A3717F21C943E01D072200F0C0F800236371002030BD10B5041C84F793FE05490B68A34203D1FF230B6000238B7110BDC046C2C5080020A70900BE
:DCA34C002E490B68082003430B600B6883430B607047F0B52A4E2B4F00243B78002B07D1294D286B002801D097F71AFA2C636C63264884767378002B0BD0202324490B60A2F7FAFD23490B78002B01D1A2F73CFE74708CF720FB002802D03B78012B01D1A1F71FFBF0BD01231B480370704710B5194C6378002B01D0FFF7C2FF0023237008208CF7A6FB10BD00B513480378002B05D120230E490B60A2F7CEFD01E00123437000BD0C480378002B03D10748837E012B01D1002000E00120704708330E000FA80900586A08003C6808005C68080014000C0032C808000FA8090092
:FBA46C007847000000C09FE51CFF2FE178D504007847000000C09FE51CFF2FE18CD504007847000000C09FE51CFF2FE1704D05007847000000C09FE51CFF2FE13C4B05007847000000C09FE51CFF2FE1E85305007847000000C09FE51CFF2FE1785605009100000037A109009200000000000000140F14061A001FAD00000000C0A9000027AA000004AA000009AA00000EAA000013AA000018AA00001CAA000022AA00009855000040550000B155000084550000895500008E550000935500009D550000A2550000A7550000AC550000B65500003B5500000F21032328410E4281770900F9790900D3AE040000000000257A0900000000003B780900A97A0914
:3DA56700005FB10400ADB1040011AF04006C020000E792040007990400F192040039840900319404000999040071830900218409000B99040077840900219904001D
:02A80F00000047
:00000001FF
